:0A0E9E00000102020303040405052D
:1002A400E4F563F562F561F560C203C200C202C2FF
:1002B400011209B87E087F008E6C8F6D7574087505
:1002C4007512756A08756B1C75720875734A7576B4
:1002D4000875777890E680E030E70E856A6E856B66
:1002E4006F857270857371800C85726E85736F85EE
:1002F4006A70856B71EE54E0700302040F7564003C
:100304007565807E087F008E668F67C374D09FFFFB
:1003140074089ECF2402CF3400FEE48F5F8E5EF516
:100324005DF55CF55BF55AF559F558AF5FAE5EAD1A
:100334005DAC5CAB5BAA5AA959A858C3120E5750BE
:1003440026E565255BF582E564355AF58374CDF0C1
:10035400E55B2401F55BE4355AF55AE43559F55962
:10036400E43558F55880C4E4F55BF55AF559F55869
:10037400AF5FAE5EAD5DAC5CAB5BAA5AA959A85841
:10038400C3120E575033E567255BF582E566355A8F
:10039400F583E0FFE565255BF582E564355AF58371
:1003A400EFF0E55B2401F55BE4355AF55AE4355981
:1003B400F559E43558F55880B785646C85656D74D6
:1003C400002480FF740834FFFEC3E5759FF575E5CE
:1003D400749EF574C3E56F9FF56FE56E9EF56EC36D
:1003E400E5719FF571E5709EF570C3E56B9FF56B44
:1003F400E56A9EF56AC3E5739FF573E5729EF5722F
:10040400C3E5779FF577E5769EF576D2E843D82065
:1004140090E668E04409F090E65CE0443DF0D2AF39
:1004240090E680E020E105D205120D3390E680E0ED
:1004340054F7F0538EF8C203300105120080C20154
:100444003003291207FD5024C203120D8D2000161B
:1004540090E682E030E704E020E1EF90E682E030CD
:10046400E604E020E0E41208D21208FE120DB28085
:01047400C7C0
:1000800090E6B9E070030201311470030201AE245E
:10009000FE700302023124FB700302012B14700373
:1000A0000201251460731460762405600302029037
:1000B000120EB0400302029C90E6BBE024FE6022D8
:1000C00014603324FD601114602224067048E56C2E
:1000D00090E6B3F0E56D8037E57490E6B3F0E57532
:1000E000802DE56E90E6B3F0E56F8023E57090E635
:1000F000B3F0E571801990E6BAE0FF120D62AA062E
:10010000A9077B01EA494B600DEE90E6B3F0EF9052
:10011000E6B4F002029C020295120E4502029C1205
:100120000EA802029C120C8302029C120E330202E1
:100130009C120EB2400302029C90E6B8E0247F605D
:100140001514601924027063A200E43325E0FFA2B5
:1001500002E4334F8041E490E740F0803F90E6BCFA
:10016000E0547EFF7E00E0D394807C0040047D015B
:1001700080027D00EC4EFEED4F249EF582740E3E13
:10018000F583E493FF3395E0FEEF24A1FFEE34E620
:100190008F82F583E0540190E740F0E4A3F090E60D
:1001A0008AF090E68B7402F002029C020295120E15
:1001B000B4400302029C90E6B8E024FE60162402DC
:1001C000600302029C90E6BAE0B40105C20002029C
:1001D0009C02029590E6BAE0705590E6BCE0547E31
:1001E000FF7E00E0D394807C0040047D0180027D8E
:1001F00000EC4EFEED4F249EF582740E3EF583E436
:1002000093FF3395E0FEEF24A1FFEE34E68F82F5F5
:1002100083E054FEF090E6BCE05480131313541FA7
:10022000FFE0540F2F90E683F0E04420F0806D80D3
:1002300064120EB6506690E6B8E024FE60192402FF
:10024000705A90E6BAE0B40104D200804F90E6BA4A
:10025000E064026047803E90E6BCE0547EFF7E0092
:10026000E0D394807C0040047D0180027D00EC4E50
:10027000FEED4F249EF582740E3EF583E493FF332A
:1002800095E0FEEF24A1FFEE34E68F82F58380082F
:100290001205FA500790E6A0E04401F090E6A0E0D5
:0302A0004480F0A7
:0102A3002238
:030033000207F9C8
:0407F90053D8EF32B0
:100800001201000200000040D0164B05000001025A
:1008100003010A06000200000040010009022E0048
:1008200001010080320904000004FF0000000705F8
:10083000020200020007050402000200070586020A
:100840000002000705880200020009022E000101D3
:100850000080320904000004FF00000007050202C6
:100860004000000705040240000007058602400022
:100870000007058802400000040309041003470034
:100880007200610075005400650063003203470088
:10089000720061007500540065006300200055007F
:1008A000530042002D004F004C00450044002D0035
:1008B00044006900730070006C006100790012034D
:1008C000320030003100310030003300330030009E
:0208D000000026
:100475006080100002013F01010101070002010037
:10048500000000000606060606060606000009002E
:100495000000003F02013F010101010700020100C8
:1004A5000000000006060606060606060000000017
:1004B5000000003F3901993F0101010701000301D7
:1004C5000000000006060606060606063600363655
:1004D5000000003F02B90101010101070007020206
:1004E50002020200060405040404040600360000A6
:1004F5000000003F6024108700000000000000009D
:1005050000000000000000000000000000000000E6
:10051500000000000000000000000000608010AB3B
:100525000111013F01010107000102010000000066
:100535000505070606060606000900090000003F36
:100545000111013F01010107000102010000000046
:100555000404060606060606000000000000003F2B
:10056500390199380101010701000301000000006C
:100575000606060606060606360036360000003F65
:10058500B9010F0101010107010602020000000087
:100595000604050406060606360000000000003FB6
:1005A5006024112B00000000000000000000000086
:1005B5000000000000000000000000000000000036
:1005C5000000000000000000471080E0000006BEAB
:0205D5004E00D6
:10073D0090E60174BEF090E6F574FFF0901080E045
:10074D0090E6F3F0901081E090E6C3F0901082E017
:10075D0090E6C1F0901083E090E6C2F0901085E035
:10076D0090E6C0F0901086E090E6F4F075AF077457
:10077D0010F59A7400F59B759DE4E4F59EFF90E6E7
:10078D007BE090E67CF00FBF80F490E67174FFF093
:10079D00F5B490E672E04480F043B680000000E4CA
:1007AD0090E6C4F000000090E6C5F0901087E09050
:1007BD00E6C6F0901088E090E6C7F0901089E090C2
:1007CD00E6C8F090108AE090E6C9F090108BE090AA
:1007DD00E6CAF090108CE090E6CBF090108DE09092
:0B07ED00E6CCF090108EE090E6CDF01E
:0107F80022DE
:1008D20090E682E030E004E020E60B90E682E03031
:1008E200E119E030E71590E680E04401F07F147EE4
:0C08F20000120BF890E680E054FEF022AB
:100D330030050990E680E0440AF0800790E680E001
:100D43004408F07FDC7E05120BF890E65D74FFF03B
:0F0D530090E65FF05391EF90E680E054F7F022C6
:020D6200A907DF
:100D6400AE76AF778F828E83A3E064037017AD01F4
:100D740019ED7001228F828E83E07C002FFDEC3E02
:080D8400FEAF0580DFE4FEFF75
:010D8C002244
:100D8D0090E682E044C0F090E681F04387010000D8
:040D9D000000002230
:100BF8008E688F6990E600E054187012E569240148
:100C0800FFE43568C313F568EF13F569801590E6BE
:100C180000E05418FFBF100BE56925E0F569E568A9
:100C280033F568E5691569AE68700215684E6005A8
:060C3800120DA180EE2266
:100DA1007400F58690FDA57C05A3E582458370F965
:010DB100221F
:03004300020900AF
:030053000209009F
:10090000020DD700020E1D00020E0700020DEF00BF
:10091000020CFD00020CC0000207FF00020EB8002E
:10092000020EB900020EBA00020EBB00020EBC009D
:10093000020EBD00020EBE00020EBF00020EC0007D
:10094000020EC100020EB800020EC200020EC30069
:10095000020EC400020EC500020EC600020EC70041
:10096000020EC800020EB800020EB800020EB80057
:10097000020EC900020ECA00020ECB00020ECC000D
:10098000020ECD00020ECE00020ECF00020ED000ED
:10099000020ED100020ED200020ED300020ED400CD
:1009A000020ED500020ED600020ED700020ED800AD
:0809B000020ED900020EDA006C
:1005D7000121320152000157000126000156000196
:0205E7004F00C3
:03000300020B47A6
:100B4700C0E0C083C082C0D0C2AF755000755100ED
:100B5700E54FC39424502CE5227028F522744F25C5
:100B67004FF582E43411F583E58AF07450254FF58B
:100B770082E43411F583E58CF0054F054F758C0041
:100B8700758A00E54FC39424400975220175230136
:100B9700754F00D28ED28CD2CAD2AFD0D0D082D0ED
:040BA70083D0E032E5
:03001300020BAB32
:100BAB00C0E0C0D075D010C2AF755000755100E5D4
:100BBB004FC39424501AE5237016F5237427254F41
:100BCB00F8A68B7428254FF8A68D758D00758B00B4
:100BDB00E54FC394244009752201752301754F001D
:0D0BEB00D28ED28CD2CAD2AFD0D0D0E032A0
:03002B00020ADAEC
:100ADA00C0E0C0F0C083C082C0D075D008C2AFC227
:100AEA00CA75C800755700E552C395265003435787
:100AFA0020E552C3955650034357108557B2055205
:100B0A00E552D395214003755200C3E55194B4E5EB
:100B1A00509400500A0551E551700D055080091294
:100B2A000E9275500075510075CC0075CDF7D2CA7A
:0D0B3A00D2AFD0D0D082D083D0F0D0E03246
:03000B00020E786A
:0D0E7800C2AF758A00758C00D2CAD2AF32AD
:03001B00020E854D
:0D0E8500C2AF758B00758D00D2CAD2AF329E
:100C3E00C2AFC2AEC2ACE4F524F525F522F523C24F
:100C4E008CC28EC2CA758E20758999F5C8F58AF543
:100C5E008CF58BF58DF5CC75CDF7C2B9C2BBD2A98B
:100C6E00D2ABD2ADD28BD28BD288D28AD28CD28E4C
:050C7E00D2CAD2AF2232
:0F0E6800C2AFEF7004AE228002AE23D2AFAF064E
:010E77002258
:0C0E9200C2AFE4F522F523F54FD2AF22E9
:1005E900C104011B00011D00411177004111780070
:1009B80090E600E054E74410F0000000120C3E906E
:1009C800E61274A0F0000000E490E613F0000000C6
:1009D80090E61474E2F000000090E615F0000000C4
:1009E80090E6047480F00000007402F000000074C7
:1009F80004F00000007406F00000007408F0000025
:100A080000E4F0000000758070F5B290E670E054E4
:100A1800FCF0D2A8D2AA12073D90E6187401F000A3
:100A280000007431F000000090E61A7409F000002C
:100A38000000000090E6D27401F000000090E6E2A9
:060A480004F00000002292
:100DB200E5BB30E71FE5AB20E11A90E6D17401F004
:100DC200000000000000E4F5BB000000E5BB30E7D6
:050DD200FB00000022FF
:0207FD00D32205
:0208FE00D32203
:020EB000D3224B
:100C830090E680E030E71800000090E6247402F05C
:100C9300000000E490E625F0000000D20480160076
:100CA3000000E490E624F000000090E6257440F094
:0D0CB300000000C20490E6BAE0F51CD32258
:100E330090E740E51CF0E490E68AF090E68B04F03E
:020E4300D322B8
:080EA80090E6BAE0F518D32230
:100E450090E740E518F0E490E68AF090E68B04F030
:020E5500D322A6
:020EB200D32249
:020EB400D32247
:020EB600D32245
:1005FA0090E6B9E02448604D14605F24F6607014F8
:10060A00700302071B1460701470030206CE2404E0
:10061A00600302073990E6C27406F000000075AF65
:10062A000790E6F574FFF07410F59A74ABF59B75B4
:10063A009DE4E4F59EFF90E67BE090E67CF00FBF38
:10064A0080F402072190E6F574FFF000000090E6BE
:10065A00C27403F000000002072190E6F574FFF06F
:10066A0000000090E6C27406F00000000207219024
:10067A00E6BAE0F556020721E4FF120E688F1DE480
:10068A0090E68AF0000000E51D6401702DF51B74E8
:10069A004F251BF582E43411F583E0FF7440251BD6
:1006AA00F582E434E7F583EFF0000000051BE51B53
:1006BA00B424DC90E68B74248004E490E68BF0008A
:1006CA00000080627F01120E688F1DE490E68AF0B6
:1006DA00000000E51D6401702EF51B7427251BF828
:1006EA00E6FF7440251BF582E434E7F583EFF0005A
:1006FA000000051BE51BB424E290E68B7424F0008D
:10070A000000120E928008E490E68BF00000008050
:10071A001590E6BAE0F526E490E68AF0000000902B
:10072A00E68BF000000090E6A0E04480F08002D35F
:02073A0022C3D8
:01073C00229A
:100DD700C0E0C083C082D2015391EF90E65D7401F9
:080DE700F0D082D083D0E0328D
:100E0700C0E0C083C0825391EF90E65D7404F0D0D8
:060E170082D083D0E0321E
:100E1D00C0E0C083C0825391EF90E65D7402F0D0C4
:060E2D0082D083D0E03208
:100CFD00C0E0C083C08285726E85736F856F8285FB
:100D0D006E83A37402F0856A70856B71857182851F
:100D1D007083A37407F05391EF90E65D7410F0D0DB
:060D2D0082D083D0E03209
:100DEF00C0E0C083C082D2035391EF90E65D7408D8
:080DFF00F0D082D083D0E03275
:100CC000C0E0C083C08290E680E030E720856A6E95
:100CD000856B6F856F82856E83A37402F085727059
:100CE000857371857182857083A37407F05391EFCA
:0D0CF00090E65D7420F0D082D083D0E03219
:0107FF0032C7
:010EB8003207
:010EB9003206
:010EBA003205
:010EBB003204
:010EBC003203
:010EBD003202
:010EBE003201
:010EBF003200
:010EC00032FF
:010EC10032FE
:010EC20032FD
:010EC30032FC
:010EC40032FB
:010EC50032FA
:010EC60032F9
:010EC70032F8
:010EC80032F7
:010EC90032F6
:010ECA0032F5
:010ECB0032F4
:010ECC0032F3
:010ECD0032F2
:010ECE0032F1
:010ECF0032F0
:010ED00032EF
:010ED10032EE
:010ED20032ED
:010ED30032EC
:010ED40032EB
:010ED50032EA
:010ED60032E9
:010ED70032E8
:010ED80032E7
:010ED90032E6
:010EDA0032E5
:03000000020A4EA3
:0C0A4E00787FE4F6D8FD758177020A95E8
:100E5700EB9FF5F0EA9E42F0E99D42F0E89C45F0F1
:010E67002268
:100A5A000202A4E493A3F8E493A34003F68001F20C
:100A6A0008DFF48029E493A3F85407240CC8C3339D
:100A7A00C4540F4420C8834004F456800146F6DF6C
:100A8A00E4800B0102040810204080900475E47E83
:100A9A00019360BCA3FF543F30E509541FFEE49361
:100AAA00A360010ECF54C025E060A840B8E493A328
:100ABA00FAE493A3F8E493A3C8C582C8CAC583CA53
:100ACA00F0A3C8C582C8CAC583CADFE9DEE780BE0B
:0105F9000001
:00000001FF
