:0A0EC2000001020203030404050509
:1002A400E4F513F512F511F510C203C200C202C23F
:1002B400011209B87E087F008E328F33753A0875B3
:1002C4003B1275300875311C75380875394A753C10
:1002D40008753D7890E680E030E70E85303485314E
:1002E40035853836853937800C85383485393585F8
:1002F4003036853137EE54E0700302040F75140074
:100304007515807E087F008E168F17C374D09FFFEB
:1003140074089ECF2402CF3400FEE48F0F8E0EF5B6
:100324000DF50CF50BF50AF509F508AF0FAE0EAD9A
:100334000DAC0CAB0BAA0AA909A808C3120E87506E
:1003440026E515250BF582E514350AF58374CDF001
:10035400E50B2401F50BE4350AF50AE43509F50942
:10036400E43508F50880C4E4F50BF50AF509F50849
:10037400AF0FAE0EAD0DAC0CAB0BAA0AA909A808C1
:10038400C3120E875033E517250BF582E516350A9F
:10039400F583E0FFE515250BF582E514350AF583B1
:1003A400EFF0E50B2401F50BE4350AF50AE4350911
:1003B400F509E43508F50880B785143285153374DA
:1003C400002480FF740834FFFEC3E53B9FF53BE542
:1003D4003A9EF53AC3E5359FF535E5349EF534C3C9
:1003E400E5379FF537E5369EF536C3E5319FF531A0
:1003F400E5309EF530C3E5399FF539E5389EF5388B
:10040400C3E53D9FF53DE53C9EF53CD2E843D8204D
:1004140090E668E04409F090E65CE0443DF0D2AF39
:1004240090E680E020E105D205120D6390E680E0BD
:1004340054F7F0538EF8C203300105120080C20154
:100444003003291208FE5024C203120DBD200016E9
:1004540090E682E030E704E020E1EF90E682E030CD
:10046400E604E020E0E41208D2120ED8120DE28075
:01047400C7C0
:1000800090E6B9E070030201311470030201AE245E
:10009000FE700302023124FB700302012B14700373
:1000A0000201251460731460762405600302029037
:1000B000120EDA400302029C90E6BBE024FE6022AE
:1000C00014603324FD601114602224067048E53268
:1000D00090E6B3F0E5338037E53A90E6B3F0E53BE0
:1000E000802DE53490E6B3F0E5358023E53690E6E3
:1000F000B3F0E537801990E6BAE0FF120D92AA0638
:10010000A9077B01EA494B600DEE90E6B3F0EF9052
:10011000E6B4F002029C020295120E7502029C12D5
:100120000ECC02029C120C8202029C120E6302028E
:100130009C120EDC400302029C90E6B8E0247F6033
:100140001514601924027063A200E43325E0FFA2B5
:1001500002E4334F8041E490E740F0803F90E6BCFA
:10016000E0547EFF7E00E0D394807C0040047D015B
:1001700080027D00EC4EFEED4F24C2F582740E3EEF
:10018000F583E493FF3395E0FEEF24A1FFEE34E620
:100190008F82F583E0540190E740F0E4A3F090E60D
:1001A0008AF090E68B7402F002029C020295120E15
:1001B000DE400302029C90E6B8E024FE60162402B2
:1001C000600302029C90E6BAE0B40105C20002029C
:1001D0009C02029590E6BAE0705590E6BCE0547E31
:1001E000FF7E00E0D394807C0040047D0180027D8E
:1001F00000EC4EFEED4F24C2F582740E3EF583E412
:1002000093FF3395E0FEEF24A1FFEE34E68F82F5F5
:1002100083E054FEF090E6BCE05480131313541FA7
:10022000FFE0540F2F90E683F0E04420F0806D80D3
:1002300064120EE0506690E6B8E024FE60192402D5
:10024000705A90E6BAE0B40104D200804F90E6BA4A
:10025000E064026047803E90E6BCE0547EFF7E0092
:10026000E0D394807C0040047D0180027D00EC4E50
:10027000FEED4F24C2F582740E3EF583E493FF3306
:1002800095E0FEEF24A1FFEE34E68F82F58380082F
:100290001205FA500790E6A0E04401F090E6A0E0D5
:0302A0004480F0A7
:0102A3002238
:03003300020ED4E6
:040ED40053D8EF32CE
:100800001201000200000040D0164B05000001025A
:1008100003010A06000200000040010009022E0048
:1008200001010080320904000004FF0000000705F8
:10083000020200020007050402000200070586020A
:100840000002000705880200020009022E000101D3
:100850000080320904000004FF00000007050202C6
:100860004000000705040240000007058602400022
:100870000007058802400000040309041003470034
:100880007200610075005400650063003203470088
:10089000720061007500540065006300200055007F
:1008A000530042002D004F004C00450044002D0035
:1008B00044006900730070006C006100790012034D
:1008C000320030003100310030003700330030009A
:0208D000000026
:100475006080100002013F01010101070002010037
:10048500000000000606060606060606000009002E
:100495000000003F02013F010101010700020100C8
:1004A5000000000006060606060606060000000017
:1004B5000000003F3901993F0101010701000301D7
:1004C5000000000006060606060606063600363655
:1004D5000000003F02B90101010101070007020206
:1004E50002020200060405040404040600360000A6
:1004F5000000003F6024108700000000000000009D
:1005050000000000000000000000000000000000E6
:10051500000000000000000000000000608010AB3B
:100525000111013F01010107000102010000000066
:100535000505070606060606000900090000003F36
:100545000111013F01010107000102010000000046
:100555000404060606060606000000000000003F2B
:10056500390199380101010701000301000000006C
:100575000606060606060606360036360000003F65
:10058500B9010F0101010107010602020000000087
:100595000604050406060606360000000000003FB6
:1005A5006024112B00000000000000000000000086
:1005B5000000000000000000000000000000000036
:1005C5000000000000000000471080E0000006BEAB
:0205D5004E00D6
:1007430090E60174BEF090E6F574FFF0901080E03F
:1007530090E6F3F0901081E090E6C3F0901082E011
:1007630090E6C1F0901083E090E6C2F0901085E02F
:1007730090E6C0F0901086E090E6F4F075AF077451
:1007830010F59A7400F59B759DE4E4F59EFF90E6E1
:100793007BE090E67CF00FBF80F490E67174FFF08D
:1007A300F5B490E672E04480F043B680000000E4C4
:1007B30090E6C4F000000090E6C5F0901087E0904A
:1007C300E6C6F0901088E090E6C7F0901089E090BC
:1007D300E6C8F090108AE090E6C9F090108BE090A4
:1007E300E6CAF090108CE090E6CBF090108DE0908C
:0B07F300E6CCF090108EE090E6CDF018
:0107FE0022D8
:1008D20090E682E030E004E020E60B90E682E03031
:1008E200E119E030E71590E680E04401F07F147EE4
:0C08F20000120BF790E680E054FEF022AC
:100D630030050990E680E0440AF0800790E680E0D1
:100D73004408F07FDC7E05120BF790E65D74FFF00C
:0F0D830090E65FF05391EF90E680E054F7F02296
:020D9200A907AF
:100D9400AE3CAF3D8F828E83A3E064037017AD0138
:100DA40019ED7001228F828E83E07C002FFDEC3ED2
:080DB400FEAF0580DFE4FEFF45
:010DBC002214
:100DBD0090E682E044C0F090E681F04387010000A8
:040DCD000000002200
:100BF7008E188F1990E600E054187012E519240139
:100C0700FFE43518C313F518EF13F519801590E6AF
:100C170000E05418FFBF100BE51925E0F519E5189A
:100C270033F518E5191519AE18700215184E600539
:060C3700120DD180EE2237
:100DD1007400F58690FDA57C05A3E582458370F935
:010DE10022EF
:03004300020900AF
:030053000209009F
:10090000020E0700020E4D00020E3700020E1F00FD
:10091000020CFC00020CBF000207FF00020EE20006
:10092000020EE300020EE400020EE500020EE600F5
:10093000020EE700020EE800020EE900020EEA00D5
:10094000020EEB00020EE200020EEC00020EED00C1
:10095000020EEE00020EEF00020EF000020EF10099
:10096000020EF200020EE200020EE200020EE200AF
:10097000020EF300020EF400020EF500020EF60065
:10098000020EF700020EF800020EF900020EFA0045
:10099000020EFB00020EFC00020EFD00020EFE0025
:1009A000020EFF00020F0000020F0100020F020002
:0809B000020F0300020F040016
:1005D700012132012A00012F00012600012E00010E
:0205E7002700EB
:03000300020B45A8
:100B4500C0E0C083C082C0D0C2AF7528007529003F
:100B5500E527C394305033E522702FF522744F25D5
:100B650027F582E43411F583E58AF074502527F5DD
:100B750082E43411F583E58CF00527052790117F74
:100B8500E527F0A3E4F0F58CF58AD28ED28CD2CA93
:0B0B9500D2AFD0D0D082D083D0E032AD
:03001300020BA03D
:100BA000C0E0C083C082C0D0C2AF752800752900E4
:100BB000E527C39430502FE523702BF5237481254E
:100BC00027F582E43411F583E58BF074822527F54F
:100BD00082E43411F583E58DF09011B1E527F0A39F
:100BE000E4F0F58DF58BD28ED28CD2CAD2AFD0D0B4
:070BF000D082D083D0E03277
:03002B00020ADAEC
:100ADA00C0E0C0D0C2AFC2CA75C800752F00E52AEF
:100AEA00C395265003432F20E52AC3952E5003436E
:100AFA002F10852FB2052AE52AD395214003752A9E
:100B0A0000C3E529947AE52894005010E527940259
:100B1A00401A0529E529701405288010E527C39491
:100B2A0002400975220175230175270075CC0075ED
:0B0B3A00CDF7D2CAD2AFD0D0D0E0324D
:03000B00020EA83A
:0D0EA800C2AF758A00758C00D2CAD2AF327D
:03001B00020EB51D
:0D0EB500C2AF758B00758D00D2CAD2AF326E
:100C3D00C2AFC2AEC2ACE4F524F525F522F523C250
:100C4D008CC28EC2CA758E20758999F5C8F58AF544
:100C5D008CF58BF58DF5CC75CDF7C2B9C2BBD2A98C
:100C6D00D2ABD2ADD28BD28BD288D28AD28CD28E4D
:050C7D00D2CAD2AF2233
:0F0E9800C2AFEF7004AE228002AE23D2AFAF061E
:010EA7002228
:100D3200E4FFFEC2AFF522F523F52774812FF58279
:100D4200E43411F583E4F0744F2FF582E43411F5A5
:100D520083E4F00FBF00010EEF64324E70DDD2AFBC
:010D6200226E
:1005E900C104011D00011F004111B3004111B400F4
:1009B80090E600E054E74410F0000000120C3D906F
:1009C800E61274A0F0000000E490E613F0000000C6
:1009D80090E61474E2F000000090E615F0000000C4
:1009E80090E6047480F00000007402F000000074C7
:1009F80004F00000007406F00000007408F0000025
:100A080000E4F0000000758070F5B290E670E054E4
:100A1800FCF0D2A8D2AA12074390E6187401F0009D
:100A280000007431F000000090E61A7409F000002C
:100A38000000000090E6D27401F000000090E6E2A9
:060A480004F00000002292
:100DE200E5BB30E71FE5AB20E11A90E6D17401F0D4
:100DF200000000000000E4F5BB000000E5BB30E7A6
:050E0200FB00000022CE
:0208FE00D32203
:020ED800D32223
:020EDA00D32221
:100C820090E680E030E71800000090E6247402F05D
:100C9200000000E490E625F0000000D20480160077
:100CA2000000E490E624F000000090E6257440F095
:0D0CB200000000C20490E6BAE0F51ED32257
:100E630090E740E51EF0E490E68AF090E68B04F00C
:020E7300D32288
:080ECC0090E6BAE0F51AD3220A
:100E750090E740E51AF0E490E68AF090E68B04F0FE
:020E8500D32276
:020EDC00D3221F
:020EDE00D3221D
:020EE000D3221B
:1005FA0090E6B9E02448604D14605F24F6607014F8
:10060A0070030207211460701470030206CE2404DA
:10061A00600302073F90E6C27406F000000075AF5F
:10062A000790E6F574FFF07410F59A74ABF59B75B4
:10063A009DE4E4F59EFF90E67BE090E67CF00FBF38
:10064A0080F402072790E6F574FFF000000090E6B8
:10065A00C27403F000000002072790E6F574FFF069
:10066A0000000090E6C27406F0000000020727901E
:10067A00E6BAE0F52E020727E4FF120E988F1FE470
:10068A0090E68AF0000000E51F6401702DF51D74E4
:10069A004F251DF582E43411F583E0FF7440251DD2
:1006AA00F582E434E7F583EFF0000000051DE51D4F
:1006BA00B432DC90E68B74328004E490E68BF0006E
:1006CA00000080687F01120E988F1FE490E68AF07E
:1006DA00000000E51F64017034F51D7481251DF5C5
:1006EA0082E43411F583E0FF7440251DF582E43479
:1006FA00E7F583EFF0000000051DE51DB432DC903C
:10070A00E68B7432F0000000120D328008E490E6A5
:10071A008BF0000000801590E6BAE0F526E490E63A
:10072A008AF000000090E68BF000000090E6A0E05E
:08073A004480F08002D322C3C9
:010742002294
:100E0700C0E0C083C082D2015391EF90E65D7401C8
:080E1700F0D082D083D0E0325C
:100E3700C0E0C083C0825391EF90E65D7404F0D0A8
:060E470082D083D0E032EE
:100E4D00C0E0C083C0825391EF90E65D7402F0D094
:060E5D0082D083D0E032D8
:100CFC00C0E0C083C082853834853935853582851E
:100D0C003483A37402F0853036853137853782857C
:100D1C003683A37407F05391EF90E65D7410F0D016
:060D2C0082D083D0E0320A
:100E1F00C0E0C083C082D2035391EF90E65D7408A7
:080E2F00F0D082D083D0E03244
:100CBF00C0E0C083C08290E680E030E7208530340A
:100CCF00853135853582853483A37402F0853836B6
:100CDF00853937853782853683A37407F05391EFB3
:0D0CEF0090E65D7420F0D082D083D0E0321A
:0107FF0032C7
:010EE20032DD
:010EE30032DC
:010EE40032DB
:010EE50032DA
:010EE60032D9
:010EE70032D8
:010EE80032D7
:010EE90032D6
:010EEA0032D5
:010EEB0032D4
:010EEC0032D3
:010EED0032D2
:010EEE0032D1
:010EEF0032D0
:010EF00032CF
:010EF10032CE
:010EF20032CD
:010EF30032CC
:010EF40032CB
:010EF50032CA
:010EF60032C9
:010EF70032C8
:010EF80032C7
:010EF90032C6
:010EFA0032C5
:010EFB0032C4
:010EFC0032C3
:010EFD0032C2
:010EFE0032C1
:010EFF0032C0
:010F000032BE
:010F010032BD
:010F020032BC
:010F030032BB
:010F040032BA
:03000000020A4EA3
:0C0A4E00787FE4F6D8FD75813D020A9522
:100E8700EB9FF5F0EA9E42F0E99D42F0E89C45F0C1
:010E97002238
:100A5A000202A4E493A3F8E493A34003F68001F20C
:100A6A0008DFF48029E493A3F85407240CC8C3339D
:100A7A00C4540F4420C8834004F456800146F6DF6C
:100A8A00E4800B0102040810204080900475E47E83
:100A9A00019360BCA3FF543F30E509541FFEE49361
:100AAA00A360010ECF54C025E060A840B8E493A328
:100ABA00FAE493A3F8E493A3C8C582C8CAC583CA53
:100ACA00F0A3C8C582C8CAC583CADFE9DEE780BE0B
:0105F9000001
:00000001FF
